:020000040000FA
:10000000700200106901000071010000730100001E
:1000100000000000000000000000000000000000E0
:10002000000000000000000000000000750100005A
:1000300000000000000000007701000079010000CE
:100040007B0100007B0100007B0100007B010000C0
:100050007B0100007B0100007B0100007B010000B0
:100060007B0100007B0100007B0100007B010000A0
:100070007B0100007B0100007B0100007B01000090
:100080007B0100007B0100007B0100007B01000080
:100090007B0100007B0100007B0100007B01000070
:1000A0007B0100007B0100007B0100007B01000060
:1000B0007B0100007B0100007B0100007B01000050
:1000C00000F002F800F040F80CA030C808382418FE
:1000D0002D18A246671EAB4654465D46AC4201D180
:1000E00000F032F87E460F3E0FCCB6460126334272
:1000F00000D0FB1AA246AB46334318475802000013
:1001000078020000103A02D378C878C1FAD85207B2
:1001100001D330C830C101D504680C6070470000BD
:100120000023002400250026103A01D378C1FBD813
:10013000520700D330C100D50B6070471FB5C046D1
:10014000C0461FBD10B510BD00F0DAF81146FFF72C
:10015000F5FF00F023F800F0C8F803B4FFF7F2FF52
:1001600003BC00F0F1F8000007488047074800474B
:10017000FEE7FEE7FEE7FEE7FEE7FEE70448054987
:10018000034A054B7047000093020000C1000000C5
:100190007000001070020010700000101548006818
:1001A000FF2101310843134908601348806B012186
:1001B0000843114988637D20000110498861104877
:1001C000C8607D204001486208464069091508431F
:1001D0000A49486109484030406B012108430749FA
:1001E000403148630548406801210843034948609D
:1001F00000BFFEE780800440004004400000014052
:10020000E02E00003149324A11600021314A11606C
:1002100001215160002151600121516000BF2D4931
:100220004968C907C90FFAD02A4940398868400A85
:1002300040022021014303221143264A403A9160A3
:100240002549896B80229143234A916300BF21494C
:100250004039C968C907C90FF9D003211D4A116384
:1002600001215163002151630121516300BF1949EC
:10027000496BC907C90FFAD00121164A9163144985
:1002800009688900154A116011460968144A11600D
:10029000704700B500200F49403908620E48806B56
:1002A000202188430C498863002300E05B1CFF2B5E
:1002B000FCD9FFF7A7FF0748403000680121090477
:1002C000084304494031086000BD0000001BB7002E
:1002D0000000001040800440008204400400001030
:1002E000080000107047704770470446C046C0467B
:1002F0002046FFF732FF704700000000FFFFFFFFBE
:10030000754600F01DF8AE46050069465346C00824
:10031000C000854618B020B5FFF730FF60BC00274D
:100320004908B6460026C0C5C0C5C0C5C0C5C0C5C1
:10033000C0C5C0C5C0C5403D49008D4670470000DE
:10034000004870470C00001001491820ABBEFEE7C2
:100350002600020074030000000000100C000000E2
:1003600004010000800300000C0000106402000083
:100370002001000000093D0000093D0000093D008A
:04000005000000C136
:00000001FF
